{
  "contractName": "tradingclient",
  "abi": [
    {
      "constant": true,
      "inputs": [],
      "name": "_clientidentity",
      "outputs": [
        {
          "name": "",
          "type": "uint256"
        }
      ],
      "payable": false,
      "stateMutability": "view",
      "type": "function"
    },
    {
      "constant": true,
      "inputs": [],
      "name": "_quotationidentity",
      "outputs": [
        {
          "name": "",
          "type": "uint256"
        }
      ],
      "payable": false,
      "stateMutability": "view",
      "type": "function"
    },
    {
      "constant": true,
      "inputs": [
        {
          "name": "",
          "type": "uint256"
        }
      ],
      "name": "salesoreder",
      "outputs": [
        {
          "name": "_SalesorederNo",
          "type": "uint256"
        },
        {
          "name": "_productname",
          "type": "string"
        },
        {
          "name": "_productquantity",
          "type": "uint256"
        },
        {
          "name": "_date",
          "type": "uint256"
        },
        {
          "name": "_productprice",
          "type": "uint256"
        },
        {
          "name": "_deliverydate",
          "type": "uint256"
        },
        {
          "name": "_clientid",
          "type": "uint256"
        }
      ],
      "payable": false,
      "stateMutability": "view",
      "type": "function"
    },
    {
      "constant": true,
      "inputs": [
        {
          "name": "",
          "type": "uint256"
        }
      ],
      "name": "quotation",
      "outputs": [
        {
          "name": "_quotationNo",
          "type": "uint256"
        },
        {
          "name": "_quotedproduct",
          "type": "string"
        },
        {
          "name": "_quantity",
          "type": "uint256"
        },
        {
          "name": "_quotedprice",
          "type": "uint256"
        },
        {
          "name": "_InquiryNo",
          "type": "uint256"
        },
        {
          "name": "_clientid",
          "type": "uint256"
        }
      ],
      "payable": false,
      "stateMutability": "view",
      "type": "function"
    },
    {
      "constant": true,
      "inputs": [],
      "name": "_inquiryidentity",
      "outputs": [
        {
          "name": "",
          "type": "uint256"
        }
      ],
      "payable": false,
      "stateMutability": "view",
      "type": "function"
    },
    {
      "constant": true,
      "inputs": [
        {
          "name": "",
          "type": "uint256"
        }
      ],
      "name": "client",
      "outputs": [
        {
          "name": "_clientid",
          "type": "uint256"
        },
        {
          "name": "_firstname",
          "type": "string"
        },
        {
          "name": "_lastname",
          "type": "string"
        },
        {
          "name": "_quantity",
          "type": "int256"
        },
        {
          "name": "_curr",
          "type": "string"
        },
        {
          "name": "_amount",
          "type": "int256"
        },
        {
          "name": "_date",
          "type": "int256"
        },
        {
          "name": "_tradercompanyname",
          "type": "string"
        }
      ],
      "payable": false,
      "stateMutability": "view",
      "type": "function"
    },
    {
      "constant": true,
      "inputs": [],
      "name": "_salesorederidentity",
      "outputs": [
        {
          "name": "",
          "type": "uint256"
        }
      ],
      "payable": false,
      "stateMutability": "view",
      "type": "function"
    },
    {
      "constant": true,
      "inputs": [
        {
          "name": "",
          "type": "uint256"
        }
      ],
      "name": "trader",
      "outputs": [
        {
          "name": "_traderid",
          "type": "uint256"
        },
        {
          "name": "_tradercompanyname",
          "type": "string"
        },
        {
          "name": "_tradername",
          "type": "string"
        },
        {
          "name": "_clientid",
          "type": "uint256"
        }
      ],
      "payable": false,
      "stateMutability": "view",
      "type": "function"
    },
    {
      "constant": true,
      "inputs": [
        {
          "name": "",
          "type": "uint256"
        }
      ],
      "name": "inquiry",
      "outputs": [
        {
          "name": "_InquiryNo",
          "type": "uint256"
        },
        {
          "name": "_Inquiryproduct",
          "type": "string"
        },
        {
          "name": "_quantity",
          "type": "uint256"
        },
        {
          "name": "_clientid",
          "type": "uint256"
        }
      ],
      "payable": false,
      "stateMutability": "view",
      "type": "function"
    },
    {
      "anonymous": false,
      "inputs": [
        {
          "indexed": false,
          "name": "_InquiryNum",
          "type": "uint256"
        },
        {
          "indexed": false,
          "name": "_Inquiryproductna",
          "type": "string"
        },
        {
          "indexed": false,
          "name": "_quantitykg",
          "type": "uint256"
        },
        {
          "indexed": false,
          "name": "_clientidnum",
          "type": "uint256"
        }
      ],
      "name": "InquiryAdd",
      "type": "event"
    },
    {
      "constant": false,
      "inputs": [
        {
          "name": "_InquiryNo",
          "type": "uint256"
        },
        {
          "name": "_Inquiryproduct",
          "type": "string"
        },
        {
          "name": "_quantity",
          "type": "uint256"
        },
        {
          "name": "_clientid",
          "type": "uint256"
        }
      ],
      "name": "addInquiry",
      "outputs": [],
      "payable": false,
      "stateMutability": "nonpayable",
      "type": "function"
    },
    {
      "constant": false,
      "inputs": [
        {
          "name": "_quotationNo",
          "type": "uint256"
        },
        {
          "name": "_quotedproduct",
          "type": "string"
        },
        {
          "name": "_quantity",
          "type": "uint256"
        },
        {
          "name": "_quotedprice",
          "type": "uint256"
        },
        {
          "name": "_InquiryNo",
          "type": "uint256"
        },
        {
          "name": "_clientid",
          "type": "uint256"
        }
      ],
      "name": "addQuotation",
      "outputs": [],
      "payable": false,
      "stateMutability": "nonpayable",
      "type": "function"
    },
    {
      "constant": false,
      "inputs": [
        {
          "name": "_SalesorederNo",
          "type": "uint256"
        },
        {
          "name": "_productname",
          "type": "string"
        },
        {
          "name": "_productquantity",
          "type": "uint256"
        },
        {
          "name": "_date",
          "type": "uint256"
        },
        {
          "name": "_productprice",
          "type": "uint256"
        },
        {
          "name": "_deliverydate",
          "type": "uint256"
        },
        {
          "name": "_clientid",
          "type": "uint256"
        }
      ],
      "name": "addSalesorder",
      "outputs": [],
      "payable": false,
      "stateMutability": "nonpayable",
      "type": "function"
    },
    {
      "constant": false,
      "inputs": [
        {
          "name": "_traderid",
          "type": "uint256"
        },
        {
          "name": "_tradercompanyname",
          "type": "string"
        },
        {
          "name": "_tradername",
          "type": "string"
        },
        {
          "name": "_clientid",
          "type": "uint256"
        }
      ],
      "name": "addtrader",
      "outputs": [],
      "payable": false,
      "stateMutability": "nonpayable",
      "type": "function"
    },
    {
      "constant": false,
      "inputs": [
        {
          "name": "_clientid",
          "type": "uint256"
        },
        {
          "name": "_firstname",
          "type": "string"
        },
        {
          "name": "_lastname",
          "type": "string"
        },
        {
          "name": "_quantity",
          "type": "int256"
        },
        {
          "name": "_curr",
          "type": "string"
        },
        {
          "name": "_amount",
          "type": "int256"
        },
        {
          "name": "_date",
          "type": "int256"
        },
        {
          "name": "_tradercompanyname",
          "type": "string"
        }
      ],
      "name": "addclient",
      "outputs": [],
      "payable": false,
      "stateMutability": "nonpayable",
      "type": "function"
    }
  ],
  "bytecode": "0x60806040526000805560006001556000600255600060035534801561002357600080fd5b5061177f806100336000396000f3fe6080604052600436106100cf5763ffffffff7c0100000000000000000000000000000000000000000000000000000000600035041663570d3aca81146100d45780635b6d43d4146100fb5780635fea6855146101105780637023e5c7146101dc578063716971c0146102a1578063757f65c7146102b6578063812e3219146103fb578063813f8960146105eb57806385dae3fc14610600578063a818f388146106bf578063a8b4b94914610790578063b52fb6dd146108a6578063c25b236814610971578063c939ccfe14610a28575b600080fd5b3480156100e057600080fd5b506100e9610c8c565b60408051918252519081900360200190f35b34801561010757600080fd5b506100e9610c92565b34801561011c57600080fd5b5061013a6004803603602081101561013357600080fd5b5035610c98565b6040518088815260200180602001878152602001868152602001858152602001848152602001838152602001828103825288818151815260200191508051906020019080838360005b8381101561019b578181015183820152602001610183565b50505050905090810190601f1680156101c85780820380516001836020036101000a031916815260200191505b509850505050505050505060405180910390f35b3480156101e857600080fd5b50610206600480360360208110156101ff57600080fd5b5035610d5d565b6040518087815260200180602001868152602001858152602001848152602001838152602001828103825287818151815260200191508051906020019080838360005b83811015610261578181015183820152602001610249565b50505050905090810190601f16801561028e5780820380516001836020036101000a031916815260200191505b5097505050505050505060405180910390f35b3480156102ad57600080fd5b506100e9610e1c565b3480156102c257600080fd5b506103f9600480360360808110156102d957600080fd5b813591908101906040810160208201356401000000008111156102fb57600080fd5b82018360208201111561030d57600080fd5b8035906020019184600183028401116401000000008311171561032f57600080fd5b91908080601f016020809104026020016040519081016040528093929190818152602001838380828437600092019190915250929594936020810193503591505064010000000081111561038257600080fd5b82018360208201111561039457600080fd5b803590602001918460018302840111640100000000831117156103b657600080fd5b91908080601f0160208091040260200160405190810160405280939291908181526020018383808284376000920191909152509295505091359250610e22915050565b005b34801561040757600080fd5b506104256004803603602081101561041e57600080fd5b5035610ee8565b604051808981526020018060200180602001888152602001806020018781526020018681526020018060200185810385528c818151815260200191508051906020019080838360005b8381101561048657818101518382015260200161046e565b50505050905090810190601f1680156104b35780820380516001836020036101000a031916815260200191505b5085810384528b5181528b516020918201918d019080838360005b838110156104e65781810151838201526020016104ce565b50505050905090810190601f1680156105135780820380516001836020036101000a031916815260200191505b5085810383528951815289516020918201918b019080838360005b8381101561054657818101518382015260200161052e565b50505050905090810190601f1680156105735780820380516001836020036101000a031916815260200191505b50858103825286518152865160209182019188019080838360005b838110156105a657818101518382015260200161058e565b50505050905090810190601f1680156105d35780820380516001836020036101000a031916815260200191505b509c5050505050505050505050505060405180910390f35b3480156105f757600080fd5b506100e9611162565b34801561060c57600080fd5b506103f96004803603608081101561062357600080fd5b8135919081019060408101602082013564010000000081111561064557600080fd5b82018360208201111561065757600080fd5b8035906020019184600183028401116401000000008311171561067957600080fd5b91908080601f0160208091040260200160405190810160405280939291908181526020018383808284376000920191909152509295505082359350505060200135611168565b3480156106cb57600080fd5b506103f9600480360360e08110156106e257600080fd5b8135919081019060408101602082013564010000000081111561070457600080fd5b82018360208201111561071657600080fd5b8035906020019184600183028401116401000000008311171561073857600080fd5b91908080601f0160208091040260200160405190810160405280939291908181526020018383808284376000920191909152509295505082359350505060208101359060408101359060608101359060800135611287565b34801561079c57600080fd5b506107ba600480360360208110156107b357600080fd5b5035611329565b604051808581526020018060200180602001848152602001838103835286818151815260200191508051906020019080838360005b838110156108075781810151838201526020016107ef565b50505050905090810190601f1680156108345780820380516001836020036101000a031916815260200191505b50838103825285518152855160209182019187019080838360005b8381101561086757818101518382015260200161084f565b50505050905090810190601f1680156108945780820380516001836020036101000a031916815260200191505b50965050505050505060405180910390f35b3480156108b257600080fd5b506103f9600480360360c08110156108c957600080fd5b813591908101906040810160208201356401000000008111156108eb57600080fd5b8201836020820111156108fd57600080fd5b8035906020019184600183028401116401000000008311171561091f57600080fd5b91908080601f016020809104026020016040519081016040528093929190818152602001838380828437600092019190915250929550508235935050506020810135906040810135906060013561148b565b34801561097d57600080fd5b5061099b6004803603602081101561099457600080fd5b503561151b565b6040518085815260200180602001848152602001838152602001828103825285818151815260200191508051906020019080838360005b838110156109ea5781810151838201526020016109d2565b50505050905090810190601f168015610a175780820380516001836020036101000a031916815260200191505b509550505050505060405180910390f35b348015610a3457600080fd5b506103f96004803603610100811015610a4c57600080fd5b81359190810190604081016020820135640100000000811115610a6e57600080fd5b820183602082011115610a8057600080fd5b80359060200191846001830284011164010000000083111715610aa257600080fd5b91908080601f0160208091040260200160405190810160405280939291908181526020018383808284376000920191909152509295949360208101935035915050640100000000811115610af557600080fd5b820183602082011115610b0757600080fd5b80359060200191846001830284011164010000000083111715610b2957600080fd5b91908080601f01602080910402602001604051908101604052809392919081815260200183838082843760009201919091525092958435959094909350604081019250602001359050640100000000811115610b8457600080fd5b820183602082011115610b9657600080fd5b80359060200191846001830284011164010000000083111715610bb857600080fd5b91908080601f0160208091040260200160405190810160405280939291908181526020018383808284376000920191909152509295843595602086013595919450925060608101915060400135640100000000811115610c1757600080fd5b820183602082011115610c2957600080fd5b80359060200191846001830284011164010000000083111715610c4b57600080fd5b91908080601f0160208091040260200160405190810160405280939291908181526020018383808284376000920191909152509295506115ce945050505050565b60005481565b60025481565b6008602090815260009182526040918290208054600180830180548651600293821615610100026000190190911692909204601f810186900486028301860190965285825291949293909290830182828015610d355780601f10610d0a57610100808354040283529160200191610d35565b820191906000526020600020905b815481529060010190602001808311610d1857829003601f168201915b5050505050908060020154908060030154908060040154908060050154908060060154905087565b6007602090815260009182526040918290208054600180830180548651600293821615610100026000190190911692909204601f810186900486028301860190965285825291949293909290830182828015610dfa5780601f10610dcf57610100808354040283529160200191610dfa565b820191906000526020600020905b815481529060010190602001808311610ddd57829003601f168201915b5050505050908060020154908060030154908060040154908060050154905086565b60015481565b604080516080810182528581526020808201868152928201859052606082018490526004805460018101808355600083905284517f8a35acfbc15ff81a39ae7d344fd709f28e8600b4aa8c65c6b64bfe7fe36bd19b92909302918201928355945180519293610eb8937f8a35acfbc15ff81a39ae7d344fd709f28e8600b4aa8c65c6b64bfe7fe36bd19c909301929101906116b8565b5060408201518051610ed49160028401916020909101906116b8565b506060820151816003015550505050505050565b6005602090815260009182526040918290208054600180830180548651600293821615610100026000190190911692909204601f810186900486028301860190965285825291949293909290830182828015610f855780601f10610f5a57610100808354040283529160200191610f85565b820191906000526020600020905b815481529060010190602001808311610f6857829003601f168201915b50505060028085018054604080516020601f60001961010060018716150201909416959095049283018590048502810185019091528181529596959450909250908301828280156110175780601f10610fec57610100808354040283529160200191611017565b820191906000526020600020905b815481529060010190602001808311610ffa57829003601f168201915b50505050600383015460048401805460408051602060026001851615610100026000190190941693909304601f810184900484028201840190925281815295969395939450908301828280156110ae5780601f10611083576101008083540402835291602001916110ae565b820191906000526020600020905b81548152906001019060200180831161109157829003601f168201915b505050505090806005015490806006015490806007018054600181600116156101000203166002900480601f0160208091040260200160405190810160405280929190818152602001828054600181600116156101000203166002900480156111585780601f1061112d57610100808354040283529160200191611158565b820191906000526020600020905b81548152906001019060200180831161113b57829003601f168201915b5050505050905088565b60035481565b60018481556040805160808101825286815260208082018781528284018790526060830186905260008981526006835293909320825181559251805192946111b8939085019291909101906116b8565b5060408201518160020155606082015181600301559050507fd5ca4e30bd9015c957d5ee2541b598bc327d8aba09f51e3c58810215ddbe9d00848484846040518085815260200180602001848152602001838152602001828103825285818151815260200191508051906020019080838360005b8381101561124457818101518382015260200161122c565b50505050905090810190601f1680156112715780820380516001836020036101000a031916815260200191505b509550505050505060405180910390a150505050565b60038790556040805160e0810182528881526020808201898152828401899052606083018890526080830187905260a0830186905260c0830185905260008b8152600883529390932082518155925180519293926112eb92600185019201906116b8565b5060408201516002820155606082015160038201556080820151600482015560a0820151600582015560c09091015160069091015550505050505050565b600480548290811061133757fe5b9060005260206000209060040201600091509050806000015490806001018054600181600116156101000203166002900480601f0160208091040260200160405190810160405280929190818152602001828054600181600116156101000203166002900480156113e95780601f106113be576101008083540402835291602001916113e9565b820191906000526020600020905b8154815290600101906020018083116113cc57829003601f168201915b50505060028085018054604080516020601f600019610100600187161502019094169590950492830185900485028101850190915281815295969594509092509083018282801561147b5780601f106114505761010080835404028352916020019161147b565b820191906000526020600020905b81548152906001019060200180831161145e57829003601f168201915b5050505050908060030154905084565b60028690556040805160c0810182528781526020808201888152828401889052606083018790526080830186905260a0830185905260008a8152600783529390932082518155925180519293926114e892600185019201906116b8565b5060408201516002820155606082015160038201556080820151600482015560a090910151600590910155505050505050565b6006602090815260009182526040918290208054600180830180548651600293821615610100026000190190911692909204601f8101869004860283018601909652858252919492939092908301828280156115b85780601f1061158d576101008083540402835291602001916115b8565b820191906000526020600020905b81548152906001019060200180831161159b57829003601f168201915b5050505050908060020154908060030154905084565b600088815560408051610100810182528a815260208082018b81528284018b9052606083018a90526080830189905260a0830188905260c0830187905260e083018690528c8552600582529290932081518155915180519193611639926001850192909101906116b8565b50604082015180516116559160028401916020909101906116b8565b50606082015160038201556080820151805161167b9160048401916020909101906116b8565b5060a0820151600582015560c0820151600682015560e082015180516116ab9160078401916020909101906116b8565b5050505050505050505050565b828054600181600116156101000203166002900490600052602060002090601f016020900481019282601f106116f957805160ff1916838001178555611726565b82800160010185558215611726579182015b8281111561172657825182559160200191906001019061170b565b50611732929150611736565b5090565b61175091905b80821115611732576000815560010161173c565b9056fea165627a7a723058201cad363bc51c4f72fdace5703eff43375f465b18d465eaf75fbdb365aef61a5d0029",
  "source": "pragma solidity >=0.4.22 <0.9.0;\r\n\r\ncontract tradingclient{\r\n    \r\n    uint256 public _clientidentity = 0;\r\n    uint256 public _inquiryidentity= 0;\r\n    uint256 public _quotationidentity = 0;\r\n    uint256 public _salesorederidentity = 0;\r\n\r\n    //Client[] public client;\r\n    Trader[] public trader;\r\n   // Inquiry[] public inquiry;\r\n   // Quotation[] public quotation;\r\n   // Salesorder[] public salesoreder;\r\n\r\n    mapping(uint => Client) public client ;  \r\n    mapping(uint => Inquiry) public inquiry ;\r\n    mapping(uint => Quotation) public quotation ;\r\n    mapping(uint => Salesorder) public salesoreder ;\r\n    \r\n    struct  Inquiry {\r\n        uint _InquiryNo;\r\n        string _Inquiryproduct;\r\n        uint _quantity;\r\n        uint _clientid; }\r\n    \r\n    struct Quotation {\r\n        uint _quotationNo;\r\n        string _quotedproduct;\r\n        uint _quantity;\r\n        uint _quotedprice;\r\n        uint  _InquiryNo;\r\n        uint _clientid;\r\n    }\r\n        \r\n    struct Salesorder{\r\n        uint _SalesorederNo;\r\n        string _productname;\r\n        uint _productquantity;\r\n        uint _date;\r\n        uint _productprice;\r\n        uint _deliverydate;\r\n        uint _clientid;\r\n    }\r\n    \r\n    \r\n    struct Client {\r\n        uint _clientid;\r\n        string _firstname;\r\n        string _lastname;\r\n        int256 _quantity;\r\n        string _curr;\r\n        int256 _amount;\r\n        int256 _date;\r\n         string _tradercompanyname; }\r\n    \r\n     struct  Trader{\r\n        uint   _traderid;\r\n        string _tradercompanyname;\r\n        string _tradername; \r\n        uint _clientid;}\r\n\r\nevent InquiryAdd(\r\n        uint _InquiryNum,\r\n        string _Inquiryproductna,\r\n        uint _quantitykg,\r\n        uint _clientidnum\r\n);\r\n\r\n  function addInquiry(uint _InquiryNo , string memory  _Inquiryproduct , uint _quantity , uint _clientid ) public{\r\n            _inquiryidentity =  _InquiryNo;\r\n             inquiry[_inquiryidentity] = Inquiry(_InquiryNo,_Inquiryproduct,_quantity,_clientid);\r\n             emit InquiryAdd(_InquiryNo, _Inquiryproduct, _quantity, _clientid); }\r\n\r\n   function addQuotation(uint _quotationNo , string memory  _quotedproduct , uint _quantity, uint _quotedprice , uint  _InquiryNo , uint _clientid ) public\r\n    {                 _quotationidentity = _quotationNo ;\r\n          quotation[_quotationidentity] = Quotation(_quotationNo,_quotedproduct,_quantity,_quotedprice,_InquiryNo,_clientid) ;\r\n         }    \r\n   \r\n    function addSalesorder(uint _SalesorederNo , string memory _productname , uint _productquantity, uint _date , uint _productprice ,uint _deliverydate, uint _clientid ) public{\r\n              _salesorederidentity = _SalesorederNo;\r\n              salesoreder[_salesorederidentity] = Salesorder(_SalesorederNo, _productname, _productquantity, _date , _productprice, _deliverydate, _clientid);  }\r\n            \r\n \r\n  \r\n    function addtrader(uint _traderid , string memory  _tradercompanyname , string memory  _tradername , uint _clientid ) public{\r\n            trader.push(Trader(_traderid,_tradercompanyname,_tradername,_clientid));    \r\n    }\r\n    \r\n    function addclient( uint _clientid , string memory _firstname , string memory _lastname , int256 _quantity, string memory _curr, int256 _amount, int256 _date , string memory _tradercompanyname)public {\r\n              _clientidentity = _clientid;\r\n       client[_clientidentity] = Client(_clientid, _firstname , _lastname, _quantity, _curr, _amount, _date , _tradercompanyname); }    \r\n    \r\n}",
  "sourcePath": "C:/Users/I549151/Desktop/blockchain/eth-todo-list-master/contracts/tradingclient.sol",
  "compiler": {
    "name": "solc",
    "version": "0.5.0+commit.1d4f565a.Emscripten.clang"
  },
  "schemaVersion": "3.0.1",
  "updatedAt": "2021-10-11T18:39:28.635Z",
  "devdoc": {
    "methods": {}
  },
  "userdoc": {
    "methods": {}
  }
}